{
	"contracts/Prueba.sol": {
		"SolidityTest": {
			"abi": [
				{
					"inputs": [],
					"payable": false,
					"stateMutability": "nonpayable",
					"type": "constructor"
				},
				{
					"constant": true,
					"inputs": [],
					"name": "getResult",
					"outputs": [
						{
							"internalType": "uint256",
							"name": "",
							"type": "uint256"
						}
					],
					"payable": false,
					"stateMutability": "view",
					"type": "function"
				}
			],
			"devdoc": {
				"methods": {}
			},
			"evm": {
				"assembly": "    /* \"contracts/Prueba.sol\":25:325  contract SolidityTest {\r... */\n  mstore(0x40, 0x80)\n    /* \"contracts/Prueba.sol\":92:147  constructor() public {\r... */\n  callvalue\n    /* \"--CODEGEN--\":8:17   */\n  dup1\n    /* \"--CODEGEN--\":5:7   */\n  iszero\n  tag_1\n  jumpi\n    /* \"--CODEGEN--\":30:31   */\n  0x00\n    /* \"--CODEGEN--\":27:28   */\n  dup1\n    /* \"--CODEGEN--\":20:32   */\n  revert\n    /* \"--CODEGEN--\":5:7   */\ntag_1:\n    /* \"contracts/Prueba.sol\":92:147  constructor() public {\r... */\n  pop\n    /* \"contracts/Prueba.sol\":135:137  10 */\n  0x0a\n    /* \"contracts/Prueba.sol\":122:132  storedData */\n  0x00\n    /* \"contracts/Prueba.sol\":122:137  storedData = 10 */\n  dup2\n  swap1\n  sstore\n  pop\n    /* \"contracts/Prueba.sol\":25:325  contract SolidityTest {\r... */\n  dataSize(sub_0)\n  dup1\n  dataOffset(sub_0)\n  0x00\n  codecopy\n  0x00\n  return\nstop\n\nsub_0: assembly {\n        /* \"contracts/Prueba.sol\":25:325  contract SolidityTest {\r... */\n      mstore(0x40, 0x80)\n      callvalue\n        /* \"--CODEGEN--\":8:17   */\n      dup1\n        /* \"--CODEGEN--\":5:7   */\n      iszero\n      tag_1\n      jumpi\n        /* \"--CODEGEN--\":30:31   */\n      0x00\n        /* \"--CODEGEN--\":27:28   */\n      dup1\n        /* \"--CODEGEN--\":20:32   */\n      revert\n        /* \"--CODEGEN--\":5:7   */\n    tag_1:\n        /* \"contracts/Prueba.sol\":25:325  contract SolidityTest {\r... */\n      pop\n      jumpi(tag_2, lt(calldatasize, 0x04))\n      shr(0xe0, calldataload(0x00))\n      dup1\n      0xde292789\n      eq\n      tag_3\n      jumpi\n    tag_2:\n      0x00\n      dup1\n      revert\n        /* \"contracts/Prueba.sol\":152:322  function getResult() public view returns(uint){\r... */\n    tag_3:\n      tag_4\n      tag_5\n      jump\t// in\n    tag_4:\n      mload(0x40)\n      dup1\n      dup3\n      dup2\n      mstore\n      0x20\n      add\n      swap2\n      pop\n      pop\n      mload(0x40)\n      dup1\n      swap2\n      sub\n      swap1\n      return\n    tag_5:\n        /* \"contracts/Prueba.sol\":193:197  uint */\n      0x00\n        /* \"contracts/Prueba.sol\":207:213  uint a */\n      dup1\n        /* \"contracts/Prueba.sol\":216:217  1 */\n      0x01\n        /* \"contracts/Prueba.sol\":207:217  uint a = 1 */\n      swap1\n      pop\n        /* \"contracts/Prueba.sol\":227:233  uint b */\n      0x00\n        /* \"contracts/Prueba.sol\":236:237  2 */\n      0x02\n        /* \"contracts/Prueba.sol\":227:237  uint b = 2 */\n      swap1\n      pop\n        /* \"contracts/Prueba.sol\":246:257  uint result */\n      0x00\n        /* \"contracts/Prueba.sol\":264:265  b */\n      dup2\n        /* \"contracts/Prueba.sol\":260:261  a */\n      dup4\n        /* \"contracts/Prueba.sol\":260:265  a + b */\n      add\n        /* \"contracts/Prueba.sol\":246:265  uint result = a + b */\n      swap1\n      pop\n        /* \"contracts/Prueba.sol\":281:287  result */\n      dup1\n        /* \"contracts/Prueba.sol\":274:287  return result */\n      swap4\n      pop\n      pop\n      pop\n      pop\n        /* \"contracts/Prueba.sol\":152:322  function getResult() public view returns(uint){\r... */\n      swap1\n      jump\t// out\n\n    auxdata: 0xa265627a7a723158207331f7e35fe57989c529b7e16871464ec279a25b1ed1b3e07c3952227c62ee8664736f6c63430005110032\n}\n",
				"bytecode": {
					"linkReferences": {},
					"object": "6080604052348015600f57600080fd5b50600a600081905550609b806100266000396000f3fe6080604052348015600f57600080fd5b506004361060285760003560e01c8063de29278914602d575b600080fd5b60336049565b6040518082815260200191505060405180910390f35b60008060019050600060029050600081830190508093505050509056fea265627a7a723158207331f7e35fe57989c529b7e16871464ec279a25b1ed1b3e07c3952227c62ee8664736f6c63430005110032",
					"opcodes": "PUSH1 0x80 PUSH1 0x40 MSTORE CALLVALUE DUP1 ISZERO PUSH1 0xF JUMPI PUSH1 0x0 DUP1 REVERT JUMPDEST POP PUSH1 0xA PUSH1 0x0 DUP2 SWAP1 SSTORE POP PUSH1 0x9B DUP1 PUSH2 0x26 PUSH1 0x0 CODECOPY PUSH1 0x0 RETURN INVALID PUSH1 0x80 PUSH1 0x40 MSTORE CALLVALUE DUP1 ISZERO PUSH1 0xF JUMPI PUSH1 0x0 DUP1 REVERT JUMPDEST POP PUSH1 0x4 CALLDATASIZE LT PUSH1 0x28 JUMPI PUSH1 0x0 CALLDATALOAD PUSH1 0xE0 SHR DUP1 PUSH4 0xDE292789 EQ PUSH1 0x2D JUMPI JUMPDEST PUSH1 0x0 DUP1 REVERT JUMPDEST PUSH1 0x33 PUSH1 0x49 JUMP JUMPDEST PUSH1 0x40 MLOAD DUP1 DUP3 DUP2 MSTORE PUSH1 0x20 ADD SWAP2 POP POP PUSH1 0x40 MLOAD DUP1 SWAP2 SUB SWAP1 RETURN JUMPDEST PUSH1 0x0 DUP1 PUSH1 0x1 SWAP1 POP PUSH1 0x0 PUSH1 0x2 SWAP1 POP PUSH1 0x0 DUP2 DUP4 ADD SWAP1 POP DUP1 SWAP4 POP POP POP POP SWAP1 JUMP INVALID LOG2 PUSH6 0x627A7A723158 KECCAK256 PUSH20 0x31F7E35FE57989C529B7E16871464EC279A25B1E 0xD1 0xB3 0xE0 PUSH29 0x3952227C62EE8664736F6C634300051100320000000000000000000000 "
				},
				"gasEstimates": {
					"creation": {
						"codeDepositCost": "31000",
						"executionCost": "20095",
						"totalCost": "51095"
					},
					"external": {
						"getResult()": "236"
					}
				},
				"methodIdentifiers": {
					"getResult()": "de292789"
				}
			},
			"storageLayout": {
				"storage": [
					{
						"astId": 3,
						"contract": "contracts/Prueba.sol:SolidityTest",
						"label": "storedData",
						"offset": 0,
						"slot": "0",
						"type": "t_uint256"
					}
				],
				"types": {
					"t_uint256": {
						"encoding": "inplace",
						"label": "uint256",
						"numberOfBytes": "32"
					}
				}
			},
			"userdoc": {
				"methods": {}
			}
		}
	}
}