{
	"data": {
		"bytecode": {
			"linkReferences": {},
			"object": "6080604052348015600f57600080fd5b50600a600081905550609b806100266000396000f3fe6080604052348015600f57600080fd5b506004361060285760003560e01c8063de29278914602d575b600080fd5b60336049565b6040518082815260200191505060405180910390f35b60008060019050600060029050600081830190508093505050509056fea265627a7a723158207331f7e35fe57989c529b7e16871464ec279a25b1ed1b3e07c3952227c62ee8664736f6c63430005110032",
			"opcodes": "PUSH1 0x80 PUSH1 0x40 MSTORE CALLVALUE DUP1 ISZERO PUSH1 0xF JUMPI PUSH1 0x0 DUP1 REVERT JUMPDEST POP PUSH1 0xA PUSH1 0x0 DUP2 SWAP1 SSTORE POP PUSH1 0x9B DUP1 PUSH2 0x26 PUSH1 0x0 CODECOPY PUSH1 0x0 RETURN INVALID PUSH1 0x80 PUSH1 0x40 MSTORE CALLVALUE DUP1 ISZERO PUSH1 0xF JUMPI PUSH1 0x0 DUP1 REVERT JUMPDEST POP PUSH1 0x4 CALLDATASIZE LT PUSH1 0x28 JUMPI PUSH1 0x0 CALLDATALOAD PUSH1 0xE0 SHR DUP1 PUSH4 0xDE292789 EQ PUSH1 0x2D JUMPI JUMPDEST PUSH1 0x0 DUP1 REVERT JUMPDEST PUSH1 0x33 PUSH1 0x49 JUMP JUMPDEST PUSH1 0x40 MLOAD DUP1 DUP3 DUP2 MSTORE PUSH1 0x20 ADD SWAP2 POP POP PUSH1 0x40 MLOAD DUP1 SWAP2 SUB SWAP1 RETURN JUMPDEST PUSH1 0x0 DUP1 PUSH1 0x1 SWAP1 POP PUSH1 0x0 PUSH1 0x2 SWAP1 POP PUSH1 0x0 DUP2 DUP4 ADD SWAP1 POP DUP1 SWAP4 POP POP POP POP SWAP1 JUMP INVALID LOG2 PUSH6 0x627A7A723158 KECCAK256 PUSH20 0x31F7E35FE57989C529B7E16871464EC279A25B1E 0xD1 0xB3 0xE0 PUSH29 0x3952227C62EE8664736F6C634300051100320000000000000000000000 "
		},
		"gasEstimates": {
			"creation": {
				"codeDepositCost": "31000",
				"executionCost": "20095",
				"totalCost": "51095"
			},
			"external": {
				"getResult()": "236"
			}
		},
		"methodIdentifiers": {
			"getResult()": "de292789"
		}
	},
	"abi": [
		{
			"inputs": [],
			"payable": false,
			"stateMutability": "nonpayable",
			"type": "constructor"
		},
		{
			"constant": true,
			"inputs": [],
			"name": "getResult",
			"outputs": [
				{
					"internalType": "uint256",
					"name": "",
					"type": "uint256"
				}
			],
			"payable": false,
			"stateMutability": "view",
			"type": "function"
		}
	]
}