{
  "_format": "hh-sol-artifact-1",
  "contractName": "Owners",
  "sourceName": "contracts/Owners.sol",
  "abi": [
    {
      "anonymous": false,
      "inputs": [
        {
          "indexed": false,
          "internalType": "string",
          "name": "_name",
          "type": "string"
        },
        {
          "indexed": false,
          "internalType": "string",
          "name": "_descritpion",
          "type": "string"
        },
        {
          "indexed": false,
          "internalType": "enum Owners.OwnerRole",
          "name": "role",
          "type": "uint8"
        }
      ],
      "name": "getOwnerEvent",
      "type": "event"
    },
    {
      "inputs": [
        {
          "internalType": "string",
          "name": "_name",
          "type": "string"
        },
        {
          "internalType": "string",
          "name": "_description",
          "type": "string"
        },
        {
          "internalType": "enum Owners.OwnerRole",
          "name": "_role",
          "type": "uint8"
        }
      ],
      "name": "addOwner",
      "outputs": [],
      "stateMutability": "nonpayable",
      "type": "function"
    },
    {
      "inputs": [
        {
          "internalType": "address",
          "name": "_ownerAddr",
          "type": "address"
        }
      ],
      "name": "emitOwner",
      "outputs": [],
      "stateMutability": "nonpayable",
      "type": "function"
    },
    {
      "inputs": [
        {
          "internalType": "address",
          "name": "_ownerAddr",
          "type": "address"
        }
      ],
      "name": "getOwner",
      "outputs": [
        {
          "internalType": "string",
          "name": "",
          "type": "string"
        },
        {
          "internalType": "string",
          "name": "",
          "type": "string"
        },
        {
          "internalType": "enum Owners.OwnerRole",
          "name": "",
          "type": "uint8"
        }
      ],
      "stateMutability": "view",
      "type": "function"
    },
    {
      "inputs": [
        {
          "internalType": "address",
          "name": "_owner",
          "type": "address"
        }
      ],
      "name": "getOwnerRole",
      "outputs": [
        {
          "internalType": "uint256",
          "name": "",
          "type": "uint256"
        }
      ],
      "stateMutability": "view",
      "type": "function"
    },
    {
      "inputs": [
        {
          "internalType": "address",
          "name": "_owner",
          "type": "address"
        }
      ],
      "name": "ownerExists",
      "outputs": [
        {
          "internalType": "bool",
          "name": "",
          "type": "bool"
        }
      ],
      "stateMutability": "view",
      "type": "function"
    }
  ],
  "bytecode": "0x608060405234801561001057600080fd5b50610e02806100206000396000f3fe608060405234801561001057600080fd5b50600436106100575760003560e01c80630f264cd41461005c57806359dbfde8146100785780637317d64e146100a8578063f5110205146100c4578063fa544161146100f4575b600080fd5b61007660048036038101906100719190610935565b610126565b005b610092600480360381019061008d919061090c565b610278565b60405161009f9190610a9a565b60405180910390f35b6100c260048036038101906100bd919061090c565b6102e8565b005b6100de60048036038101906100d9919061090c565b6103f4565b6040516100eb9190610b3f565b60405180910390f35b61010e6004803603810190610109919061090c565b6105dc565b60405161011d93929190610ab5565b60405180910390f35b6040518060800160405280848152602001838152602001826003811115610176577f4e487b7100000000000000000000000000000000000000000000000000000000600052602160045260246000fd5b8152602001600115158152506000803373ffffffffffffffffffffffffffffffffffffffff1673ffffffffffffffffffffffffffffffffffffffff16815260200190815260200160002060008201518160000190805190602001906101dc9291906107d7565b5060208201518160010190805190602001906101f99291906107d7565b5060408201518160020160006101000a81548160ff0219169083600381111561024b577f4e487b7100000000000000000000000000000000000000000000000000000000600052602160045260246000fd5b021790555060608201518160020160016101000a81548160ff021916908315150217905550905050505050565b6000600115156000808473ffffffffffffffffffffffffffffffffffffffff1673ffffffffffffffffffffffffffffffffffffffff16815260200190815260200160002060020160019054906101000a900460ff16151514156102de57600190506102e3565b600090505b919050565b7f384334dda85bff33efd452910f76754dce1f35a4817c6e1bec1b5521a6015dbb6000808373ffffffffffffffffffffffffffffffffffffffff1673ffffffffffffffffffffffffffffffffffffffff1681526020019081526020016000206000016000808473ffffffffffffffffffffffffffffffffffffffff1673ffffffffffffffffffffffffffffffffffffffff1681526020019081526020016000206001016000808573ffffffffffffffffffffffffffffffffffffffff1673ffffffffffffffffffffffffffffffffffffffff16815260200190815260200160002060020160009054906101000a900460ff166040516103e993929190610afa565b60405180910390a150565b6000806000808473ffffffffffffffffffffffffffffffffffffffff1673ffffffffffffffffffffffffffffffffffffffff16815260200190815260200160002060020160009054906101000a900460ff16905060006003811115610482577f4e487b7100000000000000000000000000000000000000000000000000000000600052602160045260246000fd5b8160038111156104bb577f4e487b7100000000000000000000000000000000000000000000000000000000600052602160045260246000fd5b14156104cb5760009150506105d7565b60016003811115610505577f4e487b7100000000000000000000000000000000000000000000000000000000600052602160045260246000fd5b81600381111561053e577f4e487b7100000000000000000000000000000000000000000000000000000000600052602160045260246000fd5b141561054e5760019150506105d7565b60026003811115610588577f4e487b7100000000000000000000000000000000000000000000000000000000600052602160045260246000fd5b8160038111156105c1577f4e487b7100000000000000000000000000000000000000000000000000000000600052602160045260246000fd5b14156105d15760029150506105d7565b60039150505b919050565b60608060008060008573ffffffffffffffffffffffffffffffffffffffff1673ffffffffffffffffffffffffffffffffffffffff1681526020019081526020016000206000016000808673ffffffffffffffffffffffffffffffffffffffff1673ffffffffffffffffffffffffffffffffffffffff1681526020019081526020016000206001016000808773ffffffffffffffffffffffffffffffffffffffff1673ffffffffffffffffffffffffffffffffffffffff16815260200190815260200160002060020160009054906101000a900460ff168280546106be90610c90565b80601f01602080910402602001604051908101604052809291908181526020018280546106ea90610c90565b80156107375780601f1061070c57610100808354040283529160200191610737565b820191906000526020600020905b81548152906001019060200180831161071a57829003601f168201915b5050505050925081805461074a90610c90565b80601f016020809104026020016040519081016040528092919081815260200182805461077690610c90565b80156107c35780601f10610798576101008083540402835291602001916107c3565b820191906000526020600020905b8154815290600101906020018083116107a657829003601f168201915b505050505091509250925092509193909250565b8280546107e390610c90565b90600052602060002090601f016020900481019282610805576000855561084c565b82601f1061081e57805160ff191683800117855561084c565b8280016001018555821561084c579182015b8281111561084b578251825591602001919060010190610830565b5b509050610859919061085d565b5090565b5b8082111561087657600081600090555060010161085e565b5090565b600061088d61088884610b7f565b610b5a565b9050828152602081018484840111156108a557600080fd5b6108b0848285610c4e565b509392505050565b6000813590506108c781610da5565b92915050565b6000813590506108dc81610dbc565b92915050565b600082601f8301126108f357600080fd5b813561090384826020860161087a565b91505092915050565b60006020828403121561091e57600080fd5b600061092c848285016108b8565b91505092915050565b60008060006060848603121561094a57600080fd5b600084013567ffffffffffffffff81111561096457600080fd5b610970868287016108e2565b935050602084013567ffffffffffffffff81111561098d57600080fd5b610999868287016108e2565b92505060406109aa868287016108cd565b9150509250925092565b6109bd81610bf3565b82525050565b6109cc81610c3c565b82525050565b60006109dd82610bc5565b6109e78185610bd0565b93506109f7818560208601610c5d565b610a0081610d80565b840191505092915050565b60008154610a1881610c90565b610a228186610bd0565b94506001821660008114610a3d5760018114610a4f57610a82565b60ff1983168652602086019350610a82565b610a5885610bb0565b60005b83811015610a7a57815481890152600182019150602081019050610a5b565b808801955050505b50505092915050565b610a9481610c32565b82525050565b6000602082019050610aaf60008301846109b4565b92915050565b60006060820190508181036000830152610acf81866109d2565b90508181036020830152610ae381856109d2565b9050610af260408301846109c3565b949350505050565b60006060820190508181036000830152610b148186610a0b565b90508181036020830152610b288185610a0b565b9050610b3760408301846109c3565b949350505050565b6000602082019050610b546000830184610a8b565b92915050565b6000610b64610b75565b9050610b708282610cc2565b919050565b6000604051905090565b600067ffffffffffffffff821115610b9a57610b99610d51565b5b610ba382610d80565b9050602081019050919050565b60008190508160005260206000209050919050565b600081519050919050565b600082825260208201905092915050565b6000610bec82610c12565b9050919050565b60008115159050919050565b6000819050610c0d82610d91565b919050565b600073ffffffffffffffffffffffffffffffffffffffff82169050919050565b6000819050919050565b6000610c4782610bff565b9050919050565b82818337600083830152505050565b60005b83811015610c7b578082015181840152602081019050610c60565b83811115610c8a576000848401525b50505050565b60006002820490506001821680610ca857607f821691505b60208210811415610cbc57610cbb610d22565b5b50919050565b610ccb82610d80565b810181811067ffffffffffffffff82111715610cea57610ce9610d51565b5b80604052505050565b7f4e487b7100000000000000000000000000000000000000000000000000000000600052602160045260246000fd5b7f4e487b7100000000000000000000000000000000000000000000000000000000600052602260045260246000fd5b7f4e487b7100000000000000000000000000000000000000000000000000000000600052604160045260246000fd5b6000601f19601f8301169050919050565b60048110610da257610da1610cf3565b5b50565b610dae81610be1565b8114610db957600080fd5b50565b60048110610dc957600080fd5b5056fea2646970667358221220a58070bf16e140a2870ed0e145f140a56bcad573304741aab96f471da04dabef64736f6c63430008040033",
  "linkReferences": {},
  "deployedLinkReferences": {}
}