{
  "_format": "hh-sol-artifact-1",
  "contractName": "Owners",
  "sourceName": "contracts/Owners.sol",
  "abi": [
    {
      "inputs": [
        {
          "internalType": "string",
          "name": "_name",
          "type": "string"
        },
        {
          "internalType": "string",
          "name": "_description",
          "type": "string"
        },
        {
          "internalType": "enum Owners.OwnerRole",
          "name": "_role",
          "type": "uint8"
        }
      ],
      "name": "addOwner",
      "outputs": [],
      "stateMutability": "nonpayable",
      "type": "function"
    },
    {
      "inputs": [
        {
          "internalType": "address",
          "name": "owners_addr",
          "type": "address"
        }
      ],
      "name": "getOwner",
      "outputs": [
        {
          "internalType": "string",
          "name": "",
          "type": "string"
        },
        {
          "internalType": "string",
          "name": "",
          "type": "string"
        },
        {
          "internalType": "enum Owners.OwnerRole",
          "name": "",
          "type": "uint8"
        }
      ],
      "stateMutability": "view",
      "type": "function"
    },
    {
      "inputs": [
        {
          "internalType": "address",
          "name": "_owner",
          "type": "address"
        }
      ],
      "name": "getOwnerRole",
      "outputs": [
        {
          "internalType": "uint256",
          "name": "",
          "type": "uint256"
        }
      ],
      "stateMutability": "view",
      "type": "function"
    },
    {
      "inputs": [
        {
          "internalType": "address",
          "name": "_owner",
          "type": "address"
        }
      ],
      "name": "ownerExists",
      "outputs": [
        {
          "internalType": "bool",
          "name": "",
          "type": "bool"
        }
      ],
      "stateMutability": "view",
      "type": "function"
    }
  ],
  "bytecode": "0x608060405234801561001057600080fd5b50610bf5806100206000396000f3fe608060405234801561001057600080fd5b506004361061004c5760003560e01c80630f264cd41461005157806359dbfde81461006d578063f51102051461009d578063fa544161146100cd575b600080fd5b61006b60048036038101906100669190610802565b6100ff565b005b610087600480360381019061008291906107d9565b610251565b60405161009491906108e7565b60405180910390f35b6100b760048036038101906100b291906107d9565b6102c1565b6040516100c49190610947565b60405180910390f35b6100e760048036038101906100e291906107d9565b6104a9565b6040516100f693929190610902565b60405180910390f35b604051806080016040528084815260200183815260200182600381111561014f577f4e487b7100000000000000000000000000000000000000000000000000000000600052602160045260246000fd5b8152602001600115158152506000803373ffffffffffffffffffffffffffffffffffffffff1673ffffffffffffffffffffffffffffffffffffffff16815260200190815260200160002060008201518160000190805190602001906101b59291906106a4565b5060208201518160010190805190602001906101d29291906106a4565b5060408201518160020160006101000a81548160ff02191690836003811115610224577f4e487b7100000000000000000000000000000000000000000000000000000000600052602160045260246000fd5b021790555060608201518160020160016101000a81548160ff021916908315150217905550905050505050565b6000600115156000808473ffffffffffffffffffffffffffffffffffffffff1673ffffffffffffffffffffffffffffffffffffffff16815260200190815260200160002060020160019054906101000a900460ff16151514156102b757600190506102bc565b600090505b919050565b6000806000808473ffffffffffffffffffffffffffffffffffffffff1673ffffffffffffffffffffffffffffffffffffffff16815260200190815260200160002060020160009054906101000a900460ff1690506000600381111561034f577f4e487b7100000000000000000000000000000000000000000000000000000000600052602160045260246000fd5b816003811115610388577f4e487b7100000000000000000000000000000000000000000000000000000000600052602160045260246000fd5b14156103985760009150506104a4565b600160038111156103d2577f4e487b7100000000000000000000000000000000000000000000000000000000600052602160045260246000fd5b81600381111561040b577f4e487b7100000000000000000000000000000000000000000000000000000000600052602160045260246000fd5b141561041b5760019150506104a4565b60026003811115610455577f4e487b7100000000000000000000000000000000000000000000000000000000600052602160045260246000fd5b81600381111561048e577f4e487b7100000000000000000000000000000000000000000000000000000000600052602160045260246000fd5b141561049e5760029150506104a4565b60039150505b919050565b60608060008060008573ffffffffffffffffffffffffffffffffffffffff1673ffffffffffffffffffffffffffffffffffffffff1681526020019081526020016000206000016000808673ffffffffffffffffffffffffffffffffffffffff1673ffffffffffffffffffffffffffffffffffffffff1681526020019081526020016000206001016000808773ffffffffffffffffffffffffffffffffffffffff1673ffffffffffffffffffffffffffffffffffffffff16815260200190815260200160002060020160009054906101000a900460ff1682805461058b90610a83565b80601f01602080910402602001604051908101604052809291908181526020018280546105b790610a83565b80156106045780601f106105d957610100808354040283529160200191610604565b820191906000526020600020905b8154815290600101906020018083116105e757829003601f168201915b5050505050925081805461061790610a83565b80601f016020809104026020016040519081016040528092919081815260200182805461064390610a83565b80156106905780601f1061066557610100808354040283529160200191610690565b820191906000526020600020905b81548152906001019060200180831161067357829003601f168201915b505050505091509250925092509193909250565b8280546106b090610a83565b90600052602060002090601f0160209004810192826106d25760008555610719565b82601f106106eb57805160ff1916838001178555610719565b82800160010185558215610719579182015b828111156107185782518255916020019190600101906106fd565b5b509050610726919061072a565b5090565b5b8082111561074357600081600090555060010161072b565b5090565b600061075a61075584610987565b610962565b90508281526020810184848401111561077257600080fd5b61077d848285610a41565b509392505050565b60008135905061079481610b98565b92915050565b6000813590506107a981610baf565b92915050565b600082601f8301126107c057600080fd5b81356107d0848260208601610747565b91505092915050565b6000602082840312156107eb57600080fd5b60006107f984828501610785565b91505092915050565b60008060006060848603121561081757600080fd5b600084013567ffffffffffffffff81111561083157600080fd5b61083d868287016107af565b935050602084013567ffffffffffffffff81111561085a57600080fd5b610866868287016107af565b92505060406108778682870161079a565b9150509250925092565b61088a816109e6565b82525050565b61089981610a2f565b82525050565b60006108aa826109b8565b6108b481856109c3565b93506108c4818560208601610a50565b6108cd81610b73565b840191505092915050565b6108e181610a25565b82525050565b60006020820190506108fc6000830184610881565b92915050565b6000606082019050818103600083015261091c818661089f565b90508181036020830152610930818561089f565b905061093f6040830184610890565b949350505050565b600060208201905061095c60008301846108d8565b92915050565b600061096c61097d565b90506109788282610ab5565b919050565b6000604051905090565b600067ffffffffffffffff8211156109a2576109a1610b44565b5b6109ab82610b73565b9050602081019050919050565b600081519050919050565b600082825260208201905092915050565b60006109df82610a05565b9050919050565b60008115159050919050565b6000819050610a0082610b84565b919050565b600073ffffffffffffffffffffffffffffffffffffffff82169050919050565b6000819050919050565b6000610a3a826109f2565b9050919050565b82818337600083830152505050565b60005b83811015610a6e578082015181840152602081019050610a53565b83811115610a7d576000848401525b50505050565b60006002820490506001821680610a9b57607f821691505b60208210811415610aaf57610aae610b15565b5b50919050565b610abe82610b73565b810181811067ffffffffffffffff82111715610add57610adc610b44565b5b80604052505050565b7f4e487b7100000000000000000000000000000000000000000000000000000000600052602160045260246000fd5b7f4e487b7100000000000000000000000000000000000000000000000000000000600052602260045260246000fd5b7f4e487b7100000000000000000000000000000000000000000000000000000000600052604160045260246000fd5b6000601f19601f8301169050919050565b60048110610b9557610b94610ae6565b5b50565b610ba1816109d4565b8114610bac57600080fd5b50565b60048110610bbc57600080fd5b5056fea2646970667358221220ab94baad38ca03ee0b43d3f411ddcdf0d0e2a4c0bf20569057e10e683dff7f3764736f6c63430008040033",
  "linkReferences": {},
  "deployedLinkReferences": {}
}