{
  "_format": "hh-sol-artifact-1",
  "contractName": "Products",
  "sourceName": "contracts/Products.sol",
  "abi": [
    {
      "inputs": [
        {
          "internalType": "contract Owners",
          "name": "_addrOwner",
          "type": "address"
        }
      ],
      "stateMutability": "nonpayable",
      "type": "constructor"
    },
    {
      "anonymous": false,
      "inputs": [
        {
          "indexed": false,
          "internalType": "address[]",
          "name": "_pastOwners",
          "type": "address[]"
        }
      ],
      "name": "getPastOwnersEvent",
      "type": "event"
    },
    {
      "anonymous": false,
      "inputs": [
        {
          "indexed": false,
          "internalType": "address",
          "name": "_ownerAddr",
          "type": "address"
        }
      ],
      "name": "getProductLineOwnerEvent",
      "type": "event"
    },
    {
      "anonymous": false,
      "inputs": [
        {
          "indexed": false,
          "internalType": "enum Products.State",
          "name": "_productState",
          "type": "uint8"
        }
      ],
      "name": "getProductStateEvent",
      "type": "event"
    },
    {
      "inputs": [
        {
          "internalType": "uint256",
          "name": "_UPC",
          "type": "uint256"
        }
      ],
      "name": "addProduct",
      "outputs": [],
      "stateMutability": "nonpayable",
      "type": "function"
    },
    {
      "inputs": [
        {
          "internalType": "uint256",
          "name": "_UPC",
          "type": "uint256"
        },
        {
          "internalType": "string",
          "name": "_name",
          "type": "string"
        },
        {
          "internalType": "string",
          "name": "_productDescription",
          "type": "string"
        }
      ],
      "name": "addProductLine",
      "outputs": [],
      "stateMutability": "nonpayable",
      "type": "function"
    },
    {
      "inputs": [
        {
          "internalType": "uint256",
          "name": "_idProduct",
          "type": "uint256"
        }
      ],
      "name": "emitPastOwners",
      "outputs": [],
      "stateMutability": "nonpayable",
      "type": "function"
    },
    {
      "inputs": [
        {
          "internalType": "uint256",
          "name": "_UPC",
          "type": "uint256"
        }
      ],
      "name": "emitProductLineOwner",
      "outputs": [],
      "stateMutability": "nonpayable",
      "type": "function"
    },
    {
      "inputs": [
        {
          "internalType": "uint256",
          "name": "_idProduct",
          "type": "uint256"
        }
      ],
      "name": "emitProductState",
      "outputs": [],
      "stateMutability": "nonpayable",
      "type": "function"
    },
    {
      "inputs": [
        {
          "internalType": "uint256",
          "name": "_idProduct",
          "type": "uint256"
        }
      ],
      "name": "getPastOwners",
      "outputs": [
        {
          "internalType": "address[]",
          "name": "",
          "type": "address[]"
        }
      ],
      "stateMutability": "view",
      "type": "function"
    },
    {
      "inputs": [
        {
          "internalType": "uint256",
          "name": "_UPC",
          "type": "uint256"
        }
      ],
      "name": "getProductLineOwner",
      "outputs": [
        {
          "internalType": "address",
          "name": "",
          "type": "address"
        }
      ],
      "stateMutability": "view",
      "type": "function"
    },
    {
      "inputs": [
        {
          "internalType": "uint256",
          "name": "_idProduct",
          "type": "uint256"
        }
      ],
      "name": "getProductState",
      "outputs": [
        {
          "internalType": "enum Products.State",
          "name": "",
          "type": "uint8"
        }
      ],
      "stateMutability": "view",
      "type": "function"
    },
    {
      "inputs": [],
      "name": "owners_ref",
      "outputs": [
        {
          "internalType": "contract Owners",
          "name": "",
          "type": "address"
        }
      ],
      "stateMutability": "view",
      "type": "function"
    },
    {
      "inputs": [
        {
          "internalType": "uint256",
          "name": "_idProduct",
          "type": "uint256"
        },
        {
          "internalType": "address",
          "name": "_newOwner",
          "type": "address"
        }
      ],
      "name": "transferOwwnership",
      "outputs": [],
      "stateMutability": "nonpayable",
      "type": "function"
    }
  ],
  "bytecode": "0x60806040523480156200001157600080fd5b50604051620018533803806200185383398181016040528101906200003791906200009d565b806000806101000a81548173ffffffffffffffffffffffffffffffffffffffff021916908373ffffffffffffffffffffffffffffffffffffffff1602179055506000600281905550506200012b565b600081519050620000978162000111565b92915050565b600060208284031215620000b057600080fd5b6000620000c08482850162000086565b91505092915050565b6000620000d682620000f1565b9050919050565b6000620000ea82620000c9565b9050919050565b600073ffffffffffffffffffffffffffffffffffffffff82169050919050565b6200011c81620000dd565b81146200012857600080fd5b50565b611718806200013b6000396000f3fe608060405234801561001057600080fd5b506004361061009e5760003560e01c806381175cb21161006657806381175cb2146101595780639c9fa50714610175578063acb2feec14610191578063dec9cfe6146101ad578063f89b86ad146101c95761009e565b806312bb716d146100a3578063327a48cc146100d357806349107380146100ef5780634d83fc5b1461010d5780636e3b8bfb1461013d575b600080fd5b6100bd60048036038101906100b89190610f00565b6101f9565b6040516100ca9190611207565b60405180910390f35b6100ed60048036038101906100e89190610f00565b610226565b005b6100f7610436565b60405161010491906111ec565b60405180910390f35b61012760048036038101906101229190610f00565b61045a565b604051610134919061118d565b60405180910390f35b61015760048036038101906101529190610f00565b61049a565b005b610173600480360381019061016e9190610f00565b61050a565b005b61018f600480360381019061018a9190610f8e565b610559565b005b6101ab60048036038101906101a69190610f00565b610710565b005b6101c760048036038101906101c29190610f52565b61076d565b005b6101e360048036038101906101de9190610f00565b610a86565b6040516101f091906111a8565b60405180910390f35b60006003600083815260200190815260200160002060030160009054906101000a900460ff169050919050565b803373ffffffffffffffffffffffffffffffffffffffff166001600083815260200190815260200160002060020160009054906101000a900473ffffffffffffffffffffffffffffffffffffffff1673ffffffffffffffffffffffffffffffffffffffff16146102cb576040517f08c379a00000000000000000000000000000000000000000000000000000000081526004016102c290611242565b60405180910390fd5b606060405180608001604052808481526020013373ffffffffffffffffffffffffffffffffffffffff1681526020018281526020016000600381111561033a577f4e487b7100000000000000000000000000000000000000000000000000000000600052602160045260246000fd5b8152506003600060025481526020019081526020016000206000820151816000015560208201518160010160006101000a81548173ffffffffffffffffffffffffffffffffffffffff021916908373ffffffffffffffffffffffffffffffffffffffff16021790555060408201518160020190805190602001906103bf929190610cee565b5060608201518160030160006101000a81548160ff02191690836003811115610411577f4e487b7100000000000000000000000000000000000000000000000000000000600052602160045260246000fd5b02179055509050506002600081548092919061042c9061148c565b9190505550505050565b60008054906101000a900473ffffffffffffffffffffffffffffffffffffffff1681565b60006001600083815260200190815260200160002060020160009054906101000a900473ffffffffffffffffffffffffffffffffffffffff169050919050565b7fb549c9ec0350a7831b4cd72cf174fdbaece106d923bd73cfa26cc90e3e7a0a476001600083815260200190815260200160002060020160009054906101000a900473ffffffffffffffffffffffffffffffffffffffff166040516104ff919061118d565b60405180910390a150565b7fdb0c6b7a788f45d5dc7f15fd95cca3ded391ecd81299f01c57b8d3be9f35e3ae6003600083815260200190815260200160002060020160405161054e91906111ca565b60405180910390a150565b3360008054906101000a900473ffffffffffffffffffffffffffffffffffffffff1673ffffffffffffffffffffffffffffffffffffffff166359dbfde8826040518263ffffffff1660e01b81526004016105b3919061118d565b60206040518083038186803b1580156105cb57600080fd5b505afa1580156105df573d6000803e3d6000fd5b505050506040513d601f19601f820116820180604052508101906106039190610ed7565b610642576040517f08c379a000000000000000000000000000000000000000000000000000000000815260040161063990611262565b60405180910390fd5b60405180606001604052808481526020018381526020013373ffffffffffffffffffffffffffffffffffffffff168152506001600086815260200190815260200160002060008201518160000190805190602001906106a2929190610d78565b5060208201518160010190805190602001906106bf929190610d78565b5060408201518160020160006101000a81548173ffffffffffffffffffffffffffffffffffffffff021916908373ffffffffffffffffffffffffffffffffffffffff16021790555090505050505050565b7f5a30fdcb6799d424e1848fc6681f9a3b3d832030eadb89fb4b5429ffe8e9c16a6003600083815260200190815260200160002060030160009054906101000a900460ff166040516107629190611207565b60405180910390a150565b813373ffffffffffffffffffffffffffffffffffffffff166003600083815260200190815260200160002060010160009054906101000a900473ffffffffffffffffffffffffffffffffffffffff1673ffffffffffffffffffffffffffffffffffffffff1614610812576040517f08c379a000000000000000000000000000000000000000000000000000000000815260040161080990611222565b60405180910390fd5b8160008054906101000a900473ffffffffffffffffffffffffffffffffffffffff1673ffffffffffffffffffffffffffffffffffffffff166359dbfde8826040518263ffffffff1660e01b815260040161086c919061118d565b60206040518083038186803b15801561088457600080fd5b505afa158015610898573d6000803e3d6000fd5b505050506040513d601f19601f820116820180604052508101906108bc9190610ed7565b6108fb576040517f08c379a00000000000000000000000000000000000000000000000000000000081526004016108f290611262565b60405180910390fd5b60036000858152602001908152602001600020600201339080600181540180825580915050600190039060005260206000200160009091909190916101000a81548173ffffffffffffffffffffffffffffffffffffffff021916908373ffffffffffffffffffffffffffffffffffffffff160217905550826003600086815260200190815260200160002060010160006101000a81548173ffffffffffffffffffffffffffffffffffffffff021916908373ffffffffffffffffffffffffffffffffffffffff16021790555060008060009054906101000a900473ffffffffffffffffffffffffffffffffffffffff1673ffffffffffffffffffffffffffffffffffffffff1663f5110205856040518263ffffffff1660e01b8152600401610a23919061118d565b60206040518083038186803b158015610a3b57600080fd5b505afa158015610a4f573d6000803e3d6000fd5b505050506040513d601f19601f82011682018060405250810190610a739190610f29565b9050610a7f8582610b2a565b5050505050565b606060036000838152602001908152602001600020600201805480602002602001604051908101604052809291908181526020018280548015610b1e57602002820191906000526020600020905b8160009054906101000a900473ffffffffffffffffffffffffffffffffffffffff1673ffffffffffffffffffffffffffffffffffffffff1681526020019060010190808311610ad4575b50505050509050919050565b6000811415610b9d5760006003600084815260200190815260200160002060030160006101000a81548160ff02191690836003811115610b93577f4e487b7100000000000000000000000000000000000000000000000000000000600052602160045260246000fd5b0217905550610cea565b6001811415610c105760016003600084815260200190815260200160002060030160006101000a81548160ff02191690836003811115610c06577f4e487b7100000000000000000000000000000000000000000000000000000000600052602160045260246000fd5b0217905550610ce9565b6002811415610c835760026003600084815260200190815260200160002060030160006101000a81548160ff02191690836003811115610c79577f4e487b7100000000000000000000000000000000000000000000000000000000600052602160045260246000fd5b0217905550610ce8565b600380600084815260200190815260200160002060030160006101000a81548160ff02191690836003811115610ce2577f4e487b7100000000000000000000000000000000000000000000000000000000600052602160045260246000fd5b02179055505b5b5b5050565b828054828255906000526020600020908101928215610d67579160200282015b82811115610d665782518260006101000a81548173ffffffffffffffffffffffffffffffffffffffff021916908373ffffffffffffffffffffffffffffffffffffffff16021790555091602001919060010190610d0e565b5b509050610d749190610dfe565b5090565b828054610d849061140f565b90600052602060002090601f016020900481019282610da65760008555610ded565b82601f10610dbf57805160ff1916838001178555610ded565b82800160010185558215610ded579182015b82811115610dec578251825591602001919060010190610dd1565b5b509050610dfa9190610dfe565b5090565b5b80821115610e17576000816000905550600101610dff565b5090565b6000610e2e610e29846112a7565b611282565b905082815260208101848484011115610e4657600080fd5b610e51848285611400565b509392505050565b600081359050610e688161169d565b92915050565b600081519050610e7d816116b4565b92915050565b600082601f830112610e9457600080fd5b8135610ea4848260208601610e1b565b91505092915050565b600081359050610ebc816116cb565b92915050565b600081519050610ed1816116cb565b92915050565b600060208284031215610ee957600080fd5b6000610ef784828501610e6e565b91505092915050565b600060208284031215610f1257600080fd5b6000610f2084828501610ead565b91505092915050565b600060208284031215610f3b57600080fd5b6000610f4984828501610ec2565b91505092915050565b60008060408385031215610f6557600080fd5b6000610f7385828601610ead565b9250506020610f8485828601610e59565b9150509250929050565b600080600060608486031215610fa357600080fd5b6000610fb186828701610ead565b935050602084013567ffffffffffffffff811115610fce57600080fd5b610fda86828701610e83565b925050604084013567ffffffffffffffff811115610ff757600080fd5b61100386828701610e83565b9150509250925092565b60006110198383611025565b60208301905092915050565b61102e8161136f565b82525050565b61103d8161136f565b82525050565b600061104e826112fd565b611058818561132d565b9350611063836112d8565b8060005b8381101561109457815161107b888261100d565b975061108683611313565b925050600181019050611067565b5085935050505092915050565b60006110ac82611308565b6110b6818561132d565b93506110c1836112e8565b8060005b838110156110f9576110d682611591565b6110e0888261100d565b97506110eb83611320565b9250506001810190506110c5565b5085935050505092915050565b61110f816113ca565b82525050565b61111e816113ee565b82525050565b6000611131602f8361133e565b915061113c826115c2565b604082019050919050565b600061115460338361133e565b915061115f82611611565b604082019050919050565b600061117760128361133e565b915061118282611660565b602082019050919050565b60006020820190506111a26000830184611034565b92915050565b600060208201905081810360008301526111c28184611043565b905092915050565b600060208201905081810360008301526111e481846110a1565b905092915050565b60006020820190506112016000830184611106565b92915050565b600060208201905061121c6000830184611115565b92915050565b6000602082019050818103600083015261123b81611124565b9050919050565b6000602082019050818103600083015261125b81611147565b9050919050565b6000602082019050818103600083015261127b8161116a565b9050919050565b600061128c61129d565b9050611298828261145b565b919050565b6000604051905090565b600067ffffffffffffffff8211156112c2576112c1611562565b5b6112cb826115a4565b9050602081019050919050565b6000819050602082019050919050565b60008190508160005260206000209050919050565b600081519050919050565b600081549050919050565b6000602082019050919050565b6000600182019050919050565b600082825260208201905092915050565b600082825260208201905092915050565b600073ffffffffffffffffffffffffffffffffffffffff82169050919050565b600061137a826113a0565b9050919050565b60008115159050919050565b600081905061139b82611689565b919050565b600073ffffffffffffffffffffffffffffffffffffffff82169050919050565b6000819050919050565b60006113d5826113dc565b9050919050565b60006113e7826113a0565b9050919050565b60006113f98261138d565b9050919050565b82818337600083830152505050565b6000600282049050600182168061142757607f821691505b6020821081141561143b5761143a611533565b5b50919050565b600061145461144f836115b5565b61134f565b9050919050565b611464826115a4565b810181811067ffffffffffffffff8211171561148357611482611562565b5b80604052505050565b6000611497826113c0565b91507fffffffffffffffffffffffffffffffffffffffffffffffffffffffffffffffff8214156114ca576114c96114d5565b5b600182019050919050565b7f4e487b7100000000000000000000000000000000000000000000000000000000600052601160045260246000fd5b7f4e487b7100000000000000000000000000000000000000000000000000000000600052602160045260246000fd5b7f4e487b7100000000000000000000000000000000000000000000000000000000600052602260045260246000fd5b7f4e487b7100000000000000000000000000000000000000000000000000000000600052604160045260246000fd5b600061159d8254611441565b9050919050565b6000601f19601f8301169050919050565b60008160001c9050919050565b7f6e656365736974617220736572206f776e65722064656c2070726f647563746f60008201527f20706172612068616365722065736f0000000000000000000000000000000000602082015250565b7f6e656365736974617220736572206f776e65722064656c2070726f647563742060008201527f6c696e6520706172612068616365722065736f00000000000000000000000000602082015250565b7f456c206f776e6572206e6f206578697374650000000000000000000000000000600082015250565b6004811061169a57611699611504565b5b50565b6116a68161136f565b81146116b157600080fd5b50565b6116bd81611381565b81146116c857600080fd5b50565b6116d4816113c0565b81146116df57600080fd5b5056fea26469706673582212208c8a3f6a62749632f5f8a5159f7088bd79474a44ad90e5287e940f9b8f5e1f3064736f6c63430008040033",
  "linkReferences": {},
  "deployedLinkReferences": {}
}