{
  "_format": "hh-sol-artifact-1",
  "contractName": "Products",
  "sourceName": "contracts/Products.sol",
  "abi": [
    {
      "inputs": [
        {
          "internalType": "contract Owners",
          "name": "_addrOwner",
          "type": "address"
        }
      ],
      "stateMutability": "nonpayable",
      "type": "constructor"
    },
    {
      "inputs": [
        {
          "internalType": "uint256",
          "name": "_UPC",
          "type": "uint256"
        }
      ],
      "name": "addProduct",
      "outputs": [],
      "stateMutability": "nonpayable",
      "type": "function"
    },
    {
      "inputs": [
        {
          "internalType": "uint256",
          "name": "_UPC",
          "type": "uint256"
        },
        {
          "internalType": "string",
          "name": "_name",
          "type": "string"
        },
        {
          "internalType": "string",
          "name": "_productDescription",
          "type": "string"
        }
      ],
      "name": "addProductLine",
      "outputs": [],
      "stateMutability": "nonpayable",
      "type": "function"
    },
    {
      "inputs": [
        {
          "internalType": "uint256",
          "name": "_UPC",
          "type": "uint256"
        }
      ],
      "name": "getProductLineOwner",
      "outputs": [
        {
          "internalType": "address",
          "name": "",
          "type": "address"
        }
      ],
      "stateMutability": "view",
      "type": "function"
    },
    {
      "inputs": [],
      "name": "owners_ref",
      "outputs": [
        {
          "internalType": "contract Owners",
          "name": "",
          "type": "address"
        }
      ],
      "stateMutability": "view",
      "type": "function"
    },
    {
      "inputs": [
        {
          "internalType": "uint256",
          "name": "_idProduct",
          "type": "uint256"
        },
        {
          "internalType": "address",
          "name": "_newOwner",
          "type": "address"
        }
      ],
      "name": "transferOwwnership",
      "outputs": [],
      "stateMutability": "nonpayable",
      "type": "function"
    }
  ],
  "bytecode": "0x60806040523480156200001157600080fd5b50604051620012eb380380620012eb83398181016040528101906200003791906200009d565b806000806101000a81548173ffffffffffffffffffffffffffffffffffffffff021916908373ffffffffffffffffffffffffffffffffffffffff1602179055506000600281905550506200012b565b600081519050620000978162000111565b92915050565b600060208284031215620000b057600080fd5b6000620000c08482850162000086565b91505092915050565b6000620000d682620000f1565b9050919050565b6000620000ea82620000c9565b9050919050565b600073ffffffffffffffffffffffffffffffffffffffff82169050919050565b6200011c81620000dd565b81146200012857600080fd5b50565b6111b0806200013b6000396000f3fe608060405234801561001057600080fd5b50600436106100575760003560e01c8063327a48cc1461005c57806349107380146100785780634d83fc5b146100965780639c9fa507146100c6578063dec9cfe6146100e2575b600080fd5b61007660048036038101906100719190610c18565b6100fe565b005b61008061030e565b60405161008d9190610dc7565b60405180910390f35b6100b060048036038101906100ab9190610c18565b610332565b6040516100bd9190610dac565b60405180910390f35b6100e060048036038101906100db9190610ca6565b610372565b005b6100fc60048036038101906100f79190610c6a565b610529565b005b803373ffffffffffffffffffffffffffffffffffffffff166001600083815260200190815260200160002060020160009054906101000a900473ffffffffffffffffffffffffffffffffffffffff1673ffffffffffffffffffffffffffffffffffffffff16146101a3576040517f08c379a000000000000000000000000000000000000000000000000000000000815260040161019a90610e02565b60405180910390fd5b606060405180608001604052808481526020013373ffffffffffffffffffffffffffffffffffffffff16815260200182815260200160006003811115610212577f4e487b7100000000000000000000000000000000000000000000000000000000600052602160045260246000fd5b8152506003600060025481526020019081526020016000206000820151816000015560208201518160010160006101000a81548173ffffffffffffffffffffffffffffffffffffffff021916908373ffffffffffffffffffffffffffffffffffffffff1602179055506040820151816002019080519060200190610297929190610a06565b5060608201518160030160006101000a81548160ff021916908360038111156102e9577f4e487b7100000000000000000000000000000000000000000000000000000000600052602160045260246000fd5b02179055509050506002600081548092919061030490610f87565b9190505550505050565b60008054906101000a900473ffffffffffffffffffffffffffffffffffffffff1681565b60006001600083815260200190815260200160002060020160009054906101000a900473ffffffffffffffffffffffffffffffffffffffff169050919050565b3360008054906101000a900473ffffffffffffffffffffffffffffffffffffffff1673ffffffffffffffffffffffffffffffffffffffff166359dbfde8826040518263ffffffff1660e01b81526004016103cc9190610dac565b60206040518083038186803b1580156103e457600080fd5b505afa1580156103f8573d6000803e3d6000fd5b505050506040513d601f19601f8201168201806040525081019061041c9190610bef565b61045b576040517f08c379a000000000000000000000000000000000000000000000000000000000815260040161045290610e22565b60405180910390fd5b60405180606001604052808481526020018381526020013373ffffffffffffffffffffffffffffffffffffffff168152506001600086815260200190815260200160002060008201518160000190805190602001906104bb929190610a90565b5060208201518160010190805190602001906104d8929190610a90565b5060408201518160020160006101000a81548173ffffffffffffffffffffffffffffffffffffffff021916908373ffffffffffffffffffffffffffffffffffffffff16021790555090505050505050565b813373ffffffffffffffffffffffffffffffffffffffff166003600083815260200190815260200160002060010160009054906101000a900473ffffffffffffffffffffffffffffffffffffffff1673ffffffffffffffffffffffffffffffffffffffff16146105ce576040517f08c379a00000000000000000000000000000000000000000000000000000000081526004016105c590610de2565b60405180910390fd5b8160008054906101000a900473ffffffffffffffffffffffffffffffffffffffff1673ffffffffffffffffffffffffffffffffffffffff166359dbfde8826040518263ffffffff1660e01b81526004016106289190610dac565b60206040518083038186803b15801561064057600080fd5b505afa158015610654573d6000803e3d6000fd5b505050506040513d601f19601f820116820180604052508101906106789190610bef565b6106b7576040517f08c379a00000000000000000000000000000000000000000000000000000000081526004016106ae90610e22565b60405180910390fd5b60036000858152602001908152602001600020600201339080600181540180825580915050600190039060005260206000200160009091909190916101000a81548173ffffffffffffffffffffffffffffffffffffffff021916908373ffffffffffffffffffffffffffffffffffffffff160217905550826003600086815260200190815260200160002060010160006101000a81548173ffffffffffffffffffffffffffffffffffffffff021916908373ffffffffffffffffffffffffffffffffffffffff16021790555060008060009054906101000a900473ffffffffffffffffffffffffffffffffffffffff1673ffffffffffffffffffffffffffffffffffffffff1663f5110205856040518263ffffffff1660e01b81526004016107df9190610dac565b60206040518083038186803b1580156107f757600080fd5b505afa15801561080b573d6000803e3d6000fd5b505050506040513d601f19601f8201168201806040525081019061082f9190610c41565b905061083b8582610842565b5050505050565b60008114156108b55760006003600084815260200190815260200160002060030160006101000a81548160ff021916908360038111156108ab577f4e487b7100000000000000000000000000000000000000000000000000000000600052602160045260246000fd5b0217905550610a02565b60018114156109285760016003600084815260200190815260200160002060030160006101000a81548160ff0219169083600381111561091e577f4e487b7100000000000000000000000000000000000000000000000000000000600052602160045260246000fd5b0217905550610a01565b600281141561099b5760026003600084815260200190815260200160002060030160006101000a81548160ff02191690836003811115610991577f4e487b7100000000000000000000000000000000000000000000000000000000600052602160045260246000fd5b0217905550610a00565b600380600084815260200190815260200160002060030160006101000a81548160ff021916908360038111156109fa577f4e487b7100000000000000000000000000000000000000000000000000000000600052602160045260246000fd5b02179055505b5b5b5050565b828054828255906000526020600020908101928215610a7f579160200282015b82811115610a7e5782518260006101000a81548173ffffffffffffffffffffffffffffffffffffffff021916908373ffffffffffffffffffffffffffffffffffffffff16021790555091602001919060010190610a26565b5b509050610a8c9190610b16565b5090565b828054610a9c90610f24565b90600052602060002090601f016020900481019282610abe5760008555610b05565b82601f10610ad757805160ff1916838001178555610b05565b82800160010185558215610b05579182015b82811115610b04578251825591602001919060010190610ae9565b5b509050610b129190610b16565b5090565b5b80821115610b2f576000816000905550600101610b17565b5090565b6000610b46610b4184610e67565b610e42565b905082815260208101848484011115610b5e57600080fd5b610b69848285610f15565b509392505050565b600081359050610b8081611135565b92915050565b600081519050610b958161114c565b92915050565b600082601f830112610bac57600080fd5b8135610bbc848260208601610b33565b91505092915050565b600081359050610bd481611163565b92915050565b600081519050610be981611163565b92915050565b600060208284031215610c0157600080fd5b6000610c0f84828501610b86565b91505092915050565b600060208284031215610c2a57600080fd5b6000610c3884828501610bc5565b91505092915050565b600060208284031215610c5357600080fd5b6000610c6184828501610bda565b91505092915050565b60008060408385031215610c7d57600080fd5b6000610c8b85828601610bc5565b9250506020610c9c85828601610b71565b9150509250929050565b600080600060608486031215610cbb57600080fd5b6000610cc986828701610bc5565b935050602084013567ffffffffffffffff811115610ce657600080fd5b610cf286828701610b9b565b925050604084013567ffffffffffffffff811115610d0f57600080fd5b610d1b86828701610b9b565b9150509250925092565b610d2e81610ea9565b82525050565b610d3d81610ef1565b82525050565b6000610d50602f83610e98565b9150610d5b8261106e565b604082019050919050565b6000610d73603383610e98565b9150610d7e826110bd565b604082019050919050565b6000610d96601283610e98565b9150610da18261110c565b602082019050919050565b6000602082019050610dc16000830184610d25565b92915050565b6000602082019050610ddc6000830184610d34565b92915050565b60006020820190508181036000830152610dfb81610d43565b9050919050565b60006020820190508181036000830152610e1b81610d66565b9050919050565b60006020820190508181036000830152610e3b81610d89565b9050919050565b6000610e4c610e5d565b9050610e588282610f56565b919050565b6000604051905090565b600067ffffffffffffffff821115610e8257610e8161102e565b5b610e8b8261105d565b9050602081019050919050565b600082825260208201905092915050565b6000610eb482610ec7565b9050919050565b60008115159050919050565b600073ffffffffffffffffffffffffffffffffffffffff82169050919050565b6000819050919050565b6000610efc82610f03565b9050919050565b6000610f0e82610ec7565b9050919050565b82818337600083830152505050565b60006002820490506001821680610f3c57607f821691505b60208210811415610f5057610f4f610fff565b5b50919050565b610f5f8261105d565b810181811067ffffffffffffffff82111715610f7e57610f7d61102e565b5b80604052505050565b6000610f9282610ee7565b91507fffffffffffffffffffffffffffffffffffffffffffffffffffffffffffffffff821415610fc557610fc4610fd0565b5b600182019050919050565b7f4e487b7100000000000000000000000000000000000000000000000000000000600052601160045260246000fd5b7f4e487b7100000000000000000000000000000000000000000000000000000000600052602260045260246000fd5b7f4e487b7100000000000000000000000000000000000000000000000000000000600052604160045260246000fd5b6000601f19601f8301169050919050565b7f6e656365736974617220736572206f776e65722064656c2070726f647563746f60008201527f20706172612068616365722065736f0000000000000000000000000000000000602082015250565b7f6e656365736974617220736572206f776e65722064656c2070726f647563742060008201527f6c696e6520706172612068616365722065736f00000000000000000000000000602082015250565b7f456c206f776e6572206e6f206578697374650000000000000000000000000000600082015250565b61113e81610ea9565b811461114957600080fd5b50565b61115581610ebb565b811461116057600080fd5b50565b61116c81610ee7565b811461117757600080fd5b5056fea2646970667358221220979cb1d03ca2bf445838be7259560b57a8259f4dbf04326b012da194ddd8541064736f6c63430008040033",
  "linkReferences": {},
  "deployedLinkReferences": {}
}